A2214009027CCEECACCBCBDBEA                                                                                     
2214009075CCEDCACEBCECBEA                                                                                     
A2214009071BECDCACABCBEEEA                                                                                     
A2214009089BCEDCCCEBCBCBEA                                                                                     
A221400033BCEECACEBCBEBEA                                                                                     
A2214009037BCEDCACCBCBEBEA                                                                                     
A2214009047BCEBCDCCBCBBBEA                                                                                     
F2214009019BCEDCACEBCBEBEA                                                                                     
A2214009041BCEDCAAEBCBCBEA                                                                                     
A2214009031BCEDBACEBCBCBEA                                                                                     
A2214009043BCEDCACEBCBEBEA                                                                                     
A2214s09065BCEECCCEBCBEBEA                                                                                     
A2214009051BCEDCACEBCBEBEA                                                                                     
A2214009059BCCDCACEBCBDBEA                                                                                     
A2214009023BCEECACEBCBCBEA                                                                                     
A2214009025CCEECACEBCBCBEB                                                                                     
A2214009073CCEEDACEBCDEBEA                                                                                     
A2214009039BDEDDACEBCBEAEA                                                                                     
A2214009063BCEDCACEBCBDBEE                                                                                     
A2214009091CCEECACEBCBEBEA                                                                                     
A2214009057BCEDCDCCDCBCDEE                                                                                     
A2114009021DCEECACEBCBBCEA                                                                                     
A2214009079BCEDCBCEBCBCBEA                                                                                     
A2214009067BCEECACCBCBCBEA                                                                                     
A2214009009BDEECACCDCBECEA                                                                                     
A2214009053CCEDCACEBCBEBEA                                                                                     
A2214009055BCEACACEBCEBBEA                                                                                     
A2214009085BCEECBCCBCBCBEA                                                                                     
A2214009087BBEDAACCBCBECEA                                                                                     
A2214009007BCEDCACEDCBDAEA                                                                                     
A2214009011BDCDCACEBCBCBEA                                                                                     
A2214009081BCEDCBCEBCEEBEA                                                                                     
A2214009017ADEDCACEBCCCBEA                                                                                     
A0000000000BCEDCACEBCBCBEA    