A2224009005BCEDCDCEBCEBBEA                                                                                     
A1924009025CBAEAACEBCBDBEA                                                                                     
A2224009045CCEDCBCEBCEABEA                                                                                     
A2224009004BEEDCACEBCBCDEA                                                                                     
A2224009054BDEECCCEDCCEBEA                                                                                     
A2224009019BCEECACEDCBCBEA                                                                                     
A2224009003BCEECACEDCBCBEA                                                                                     
A2224009058ADEDCDCEBCDDBEA                                                                                     
A2224009008ACDDCACCBCDCBEA                                                                                     
A2224009053BCEDCECEBCBCBEA                                                                                     
A2224009018BDEDCACEDCBCCEA                                                                                     
A2224009051CCEDCDCEBCCDBEA                                                                                     
A2224009052BCEECDCBBCBABED                                                                                     
A2224009057BCEDCACEECBCBEA                                                                                     
A2224009023CCEDCACCBCBDCEA                                                                                     
A2224009029CCEDBACEDCBCBEB                                                                                     
A2224009050BDEDCACEBCBEBEA                                                                                     
A2124009207CDEDCACEBCBEDEE                                                                                     
A2224009006BCEDCACEBCBCBEE                                                                                     
A2224009015CCEDCBCEBCBEDEE                                                                                     
A2224009017CCEECACEDCDECEE                                                                                     
A2224009010BCEDCACEBCCCBEA                                                                                     
A2224009016BCEBDACEECBEAEA                                                                                     
A2224009021CCEBCACEBCBCBEA                                                                                     
A2024009089BDEACDCEDCBCBEA                                                                                     
A2124009208BCEDCACEBCBCBEA                                                                                     
A2224009031BCEDCACEECBBBEA                                                                                     
A2224009024BCEDCBCEBCBCBEC                                                                                     
A2224009036BDEDEACEBCDEAEE                                                                                     
A2224009062BCEDCACEBCBDBEA                                                                                     
A0000000000BCEDCACEBCBCBEA                                                                                     
A2224009049BCEDCACEBCBEBEE                                                                                     
A2224009044BDEDCACEBCCBAEA                                                                                     
A2224009007DCEDCACEBCBCBEA                                                                                     
A2224009067BCEDAECEDCBDEEA                                                                                     
A2224009068CEEDDBCEBCEEAEA                                                                                     
A2224009059CCEDCACBBCDCDEE                                                                                     
A2224009025CCEDCACABCBEBEA                                                                                     
A2224009013ADEDDDCEDCBBBEE                                                                                     
A2124009004CBEDDACABCDEBEA                                                                                     
A2224009065ACEDCBCEBCDCBEA                                                                                     
A2224009048CEEDCCCEBCBEBEA                                                                                     
A2224009038CDEEDDCEBCBCBEA                                                                                     
A2224009043BCEDACCEBCDDEEA                                                                                     
A2224009040CCEDDDCEDCECEEA                                                                                     
A2224009047BDEDAACEBCBCBEA                                                                                     
A2224009014BCEDCACEBCBCCEE                                                                                     
A2224009041BDEDAACEBCBCAEA                                                                                     
A2224009066BCEDCACABCBCBEE                                                                                     
A2224009030BCEDCCCEBCBCBEA                                                                                     
A2224009055BDEDCADABCBADEA                                                                                     
A2224009035BDEECACEBCDEBEA                                                                                     
A2224009028BCEDCACEBCBABEA                                                                                     
A2224009056BECBAACEBCDEBEA                                                                                     
A2224009046BCEDCACEBCBEBEA                                                                                     
A2224009064BCEECACEBCBEBEA                                                                                     
A2224009037BCEBCACABCDEBEA