A2214009034BCEDCCCEBCEDAEA                                                                                     
A2214009052BCEDADCEBCBDBEA                                                                                     
A2214009006BCEDCDCEDCBEBEA                                                                                     
A2214009018CDEDADCCDCBDAEE                                                                                     
A2214009068DCEDADCEBCEBAED                                                                                     
A2214009002BCEDCACEBCBCBEA                                                                                     
A2214009026BDEDAACCBCDEBEA                                                                                     
A2214009070CDBDDDCEBCCCBEE                                                                                     
A2214009062BCEDCDCEBCBCCEA                                                                                     
A2214009022BCEDCACEECBEBEA                                                                                     
A2214009060BCCDCECEBCDEBEA                                                                                     
A2214009036BCEECDCEBCBEBEA                                                                                     
A2214009048BDEDCACEBCBDBEA                                                                                     
A2214009024BCEDBACEBCBCEEA                                                                                     
A2214009046CCEDDACEDCBAEEA                                                                                     
A2214009008DDEECACEBCBCBEA                                                                                     
A2214009016BBEBCACEDCBEBEA                                                                                     
A2214009072BDEDDACEBCBEDEA                                                                                     
A2214009082BCEBCCCEBCDCAEA                                                                                     
A2214009090BCBDCCCEBCDCBEE                                                                                     
A2214009080BDEDBACEBCBDCEE                                                                                     
A2214009032BEEDACCEBCBEAEA                                                                                     
A2214009010CDEDBACEBCBCBEE                                                                                     
A2214009050BCEDCDCCBCBEBEA                                                                                     
A2214009078EDEBDBCEBCDBBEA                                                                                     
A2214009074BCEECDCEBCBDAEA                                                                                     
A2214009042BAEECACABCBCBEA                                                                                     
A2214009014BCEDCACEBCBEBEA                                                                                     
A2214009056CEEDDACEEBECCEA                                                                                     
A2214009064CCEDCACABCBCBEE                                                                                     
A2214009076CDEDAACCBCBDDEE                                                                                     
A2214009058BCEDCECEBCBECEA                                                                                     
A2214009044BCEDCACEBCBDBEA                                                                                     
A2214009040CDEDADCADCBEAEA                                                                                     
A0000000000BCEDCACEBCBCBEA                                                                                     
